:100000000C9483000C94B4000C94B4000C94B400D1
:100010000C94B4000C94B4000C94B4000C94B40090
:100020000C94B4000C94B4000C94B4000C94B40080
:100030000C94B4000C94B4000C94B4000C94B40070
:100040000C94B4000C94B4000C94B4000C94B40060
:100050000C94B4000C94B4000C94B4000C941C02E6
:100060000C94B4000C9490020C9466020C94B400AE
:100070000C94B4000C94B4000C94B4000C94B40030
:100080000C94B4000C94B4000C94B4000C94B40020
:100090000C94B4000C94B4000C94B4000C94B40010
:1000A0000C94B4000C94B4000C94B4000C94B40000
:1000B0000C94B4000C94B4000C94B4000C94B400F0
:1000C0000C94B4000C94B4000C94B4000C94B400E0
:1000D0000C94B4000C94B4000C94B4000C94B400D0
:1000E0000C94B4000C9408010C9422040C94170195
:1000F0000C9471010C94BE010C94DB000C942B0148
:100100000C943901220411241FBECFEFD1E2DEBFCF
:10011000CDBF00E00CBF12E0A0E0B2E0E0ECFAE0FE
:1001200000E00BBF02C007900D92AC31B107D9F7C8
:1001300022E0ACE1B2E001C01D92A23CB207E1F7BF
:1001400010E0C3E8D0E000E006C021970109802F4D
:10015000FE010E945605C238D10780E00807A9F7C2
:100160000E94C6020C945E050C9400003FB7F89400
:100170008091210290912202A0912302B091240249
:1001800026B5A89B05C02F3F19F00196A11DB11DF2
:100190003FBFBA2FA92F982F8827BC01CD01620F2E
:1001A000711D811D911D42E0660F771F881F991FE9
:1001B0004A95D1F70895AF92BF92CF92DF92EF9216
:1001C000FF920F931F93CF93DF936C017B018B0101
:1001D000040F151FEB015E01AE18BF08C017D10751
:1001E00059F06991D601ED91FC910190F081E02DDB
:1001F000C6011995892B79F7C501DF91CF911F9120
:100200000F91FF90EF90DF90CF90BF90AF90089547
:10021000FC01538D448D252F30E0842F90E0821B0C
:10022000930B541710F0CF96089501970895FC0191
:10023000918D828D981761F0A28DAE0FBF2FB11DE9
:100240005D968C91928D9F5F9F73928F90E0089541
:100250008FEF9FEF0895FC01918D828D981731F0FB
:10026000828DE80FF11D858D90E008958FEF9FEF4F
:100270000895FC01918D228D892F90E0805C9F4F25
:10028000821B91098F739927089585E292E00E945D
:10029000390121E0892B09F420E0822F0895FC0127
:1002A000A48DA80FB92FB11DA35ABF4F2C91848DD7
:1002B00090E001968F739927848FA689B7892C9334
:1002C000A089B1898C91837080648C93938D848D87
:1002D000981306C00288F389E02D80818F7D80838A
:1002E0000895EF92FF920F931F93CF93DF93EC014A
:1002F00081E0888F9B8D8C8D98131AC0E889F989CD
:10030000808185FF15C09FB7F894EE89FF896083CF
:10031000E889F98980818370806480839FBF81E050
:1003200090E0DF91CF911F910F91FF90EF90089592
:10033000F62E0B8D10E00F5F1F4F0F731127E02E6D
:100340008C8D8E110CC00FB607FCFACFE889F989A5
:10035000808185FFF5CFCE010E944F01F1CFEB8D5B
:10036000EC0FFD2FF11DE35AFF4FF0829FB7F89479
:100370000B8FEA89FB8980818062CFCFCF93DF9397
:10038000EC01888D8823B9F0AA89BB89E889F989AD
:100390008C9185FD03C0808186FD0DC00FB607FCE2
:1003A000F7CF8C9185FFF2CF808185FFEDCFCE0115
:1003B0000E944F01E9CFDF91CF91089580E090E056
:1003C000892B29F00E94450181110E94000080E0E4
:1003D00090E0892B49F080E090E0892B29F00E9481
:1003E000000081110E94000080E090E0892B49F01C
:1003F00080E090E0892B29F00E94000081110E948A
:10040000000080E090E0892B49F080E090E0892BAB
:1004100029F00E94000081110C9400000895FC0155
:1004200001900020E9F73197AF01481B590BBC013F
:1004300085E292E00C94DB001F920F920FB60F92B0
:1004400011242F933F938F939F93AF93BF938091EA
:100450001D0290911E02A0911F02B09120023091C6
:100460001C0223E0230F2D3758F50196A11DB11D65
:1004700020931C0280931D0290931E02A0931F02E2
:10048000B09320028091210290912202A091230238
:10049000B09124020196A11DB11D80932102909379
:1004A0002202A0932302B0932402BF91AF919F91A7
:1004B0008F913F912F910F900FBE0F901F90189525
:1004C00026E8230F0296A11DB11DD2CF1F920F92D5
:1004D0000FB60F9211240BB60F922F933F934F93A9
:1004E0005F936F937F938F939F93AF93BF93EF939C
:1004F000FF9385E292E00E944F01FF91EF91BF913F
:10050000AF919F918F917F916F915F914F913F91AB
:100510002F910F900BBE0F900FBE0F901F9018954C
:100520001F920F920FB60F9211240BB60F922F93BA
:100530008F939F93EF93FF93E0913502F0913602F2
:100540008081E0913B02F0913C0282FD1DC09081D0
:1005500080913E028F5F8F7320913F02821741F09E
:10056000E0913E02F0E0EB5DFD4F958F80933E02FF
:10057000FF91EF919F918F912F910F900BBE0F9054
:100580000FBE0F901F9018958081F2CFCF93DF930D
:10059000CDB7DEB7A1970FB6F894DEBF0FBECDBFC3
:1005A000789484B5826084BD84B5816084BD85B54E
:1005B000826085BD85B5816085BD80916E0081605A
:1005C00080936E0010928100809181008260809300
:1005D0008100809181008160809381008091800002
:1005E0008160809380008091B10084608093B1002D
:1005F0008091B00081608093B00080919100826012
:10060000809391008091910081608093910080910E
:1006100090008160809390008091A100826080931F
:10062000A1008091A10081608093A1008091A00031
:1006300081608093A00080912101826080932101DC
:10064000809121018160809321018091200181604E
:100650008093200180917A00846080937A00809159
:100660007A00826080937A0080917A008160809322
:100670007A0080917A00806880937A001092C1009D
:10068000E0913502F091360282E08083E091310200
:10069000F09132021082E0913302F09134028FEC3B
:1006A000808310923D02E0913902F0913A0286E097
:1006B0008083E0913702F0913802808180618083ED
:1006C000E0913702F0913802808188608083E09168
:1006D0003702F0913802808180688083E091370290
:1006E000F091380280818F7D808380917B00877FAD
:1006F00080937B0080E480937C0080917A0080640A
:1007000080937A0080917A0086FDFCCF609178001A
:1007100070917900072E000C880B990B61157105FB
:100720008105910511F00E94EA049AE0892E912C2E
:10073000A12CB12C10E000E00E949B0429E230E0E3
:1007400040E050E00E94F3046B017C01DC01CB012E
:100750000A96A11DB11DB7FF5FC06DE285E292E070
:100760000E94710126EF3FEF4FEF5FEF2C193D091B
:100770004E095F0919A2CE0181967C01CA01B90117
:10078000A50194010E942505605DF70162937F0138
:10079000211531054105510589F7E114F10419F0DE
:1007A000C7010E940F020B30110521F086E192E093
:1007B0000E940F020F5F1F4F0C30110509F0BCCFD4
:1007C00088E192E00E940F020E94B6002B013C01DA
:1007D00084EFC82EDD24D394E12CF12C0E94B600C6
:1007E0006419750986099709683E7340810591056A
:1007F000A8F3F1E0CF1AD108E108F10828EE420E83
:1008000023E0521E611C711CC114D104E104F104E7
:1008100029F70E94DE018ECF9C01AD0119A2CE0105
:1008200081967C01CA01B901A50194010E942505A8
:10083000605DF70162937F01211531054105510586
:1008400089F7ABCFE5E2F2E01382128288EE93E003
:10085000A0E0B0E084839583A683B78388E092E02C
:100860009183808385EC90E09587848784EC90E089
:100870009787868780EC90E0918B808B81EC90E06D
:10088000938B828B82EC90E0958B848B86EC90E04E
:10089000978B868B118E128E138E148E08958F92E5
:1008A0009F92AF92BF92CF92DF92EF92FF92CF933F
:1008B000DF93EC01688179818A819B8161157105E3
:1008C0008105910521F464E279ED8BE597E02DE156
:1008D00033EF41E050E00E94F30449015A019B01CB
:1008E000AC01A7EAB1E40E9412056B017C01ACEEF9
:1008F000B4EFA50194010E942005C60ED71EE81E84
:10090000F91EF7FE06C081E0C81AD108E10880E8A8
:10091000F80AC882D982EA82FB82C701B6019F77B2
:10092000DF91CF91FF90EF90DF90CF90BF90AF908D
:100930009F908F9008958F929F92AF92BF92CF9287
:10094000DF92EF92FF92609100027091010280911C
:10095000020290910302611571058105910521F450
:1009600064E279ED8BE597E02DE133EF41E050E073
:100970000E94F30449015A019B01AC01A7EAB1E4CA
:100980000E9412056B017C01ACEEB4EFA50194014D
:100990000E942005C60ED71EE81EF91EF7FE06C0EF
:1009A00081E0C81AD108E10880E8F80AC092000284
:1009B000D0920102E0920202F0920302C701B60156
:1009C0009F77FF90EF90DF90CF90BF90AF909F9078
:1009D0008F90089560930002709301028093020249
:1009E000909303020895052E97FB1EF400940E9435
:1009F0000A0557FD07D00E94250507FC03D04EF4D9
:100A00000C940A0550954095309521953F4F4F4FD6
:100A10005F4F089590958095709561957F4F8F4FAA
:100A20009F4F08950E944705A59F900DB49F900D7C
:100A3000A49F800D911D11240895B7FF0C941205F9
:100A40000E941205821B930B0895A1E21A2EAA1B85
:100A5000BB1BFD010DC0AA1FBB1FEE1FFF1FA2176E
:100A6000B307E407F50720F0A21BB30BE40BF50B6B
:100A7000661F771F881F991F1A9469F760957095F4
:100A8000809590959B01AC01BD01CF010895A29F77
:100A9000B001B39FC001A39F700D811D1124911D52
:100AA000B29F700D811D1124911D0895EE0FFF1F3F
:100AB000881F8BBF0790F691E02D1994F894FFCF13
:100AC00001000000000000007101DB000801BE0110
:0C0AD000390117012B0120000D0A000065
:00000001FF
