:100000000C9483000C94B4000C94B4000C94B400D1
:100010000C94B4000C94B4000C94B4000C94B40090
:100020000C94B4000C94B4000C94B4000C94B40080
:100030000C94B4000C94B4000C94B4000C94B40070
:100040000C94B4000C94B4000C94B4000C94B40060
:100050000C94B4000C94B4000C94B4000C943B02C7
:100060000C94B4000C94AF020C9485020C94B40070
:100070000C94B4000C94B4000C94B4000C94B40030
:100080000C94B4000C94B4000C94B4000C94B40020
:100090000C94B4000C94B4000C94B4000C94B40010
:1000A0000C94B4000C94B4000C94B4000C94B40000
:1000B0000C94B4000C94B4000C94B4000C94B400F0
:1000C0000C94B4000C94B4000C94B4000C94B400E0
:1000D0000C94B4000C94B4000C94B4000C94B400D0
:1000E0000C94B4000C94E3000C9406010C94F304FB
:1000F0000C944C010C94F2000C9414010C94B60076
:100100000C949901F30411241FBECFEFD1E2DEBF9E
:10011000CDBF00E00CBF12E0A0E0B2E0EAE2F1E106
:1001200000E00BBF02C007900D92A832B107D9F7CB
:1001300022E0A8E2B2E001C01D92A73DB207E1F7BC
:1001400010E0C3E8D0E000E006C021970109802F4D
:10015000FE010E948B08C238D10780E00807A9F78A
:100160000E94E5020C9493080C940000AF92BF9299
:10017000CF92DF92EF92FF920F931F93CF93DF9373
:100180006C017B018B01040F151FEB015E01AE18A2
:10019000BF08C017D10759F06991D601ED91FC91C4
:1001A0000190F081E02DC6011995892B79F7C501E1
:1001B000DF91CF911F910F91FF90EF90DF90CF9043
:1001C000BF90AF900895FC01538D448D252F30E0F2
:1001D000842F90E0821B930B541710F0CF96089554
:1001E00001970895FC01918D828D981761F0A28D81
:1001F000AE0FBF2FB11D5D968C91928D9F5F9F7347
:10020000928F90E008958FEF9FEF0895FC01918DFC
:10021000828D981731F0828DE80FF11D858D90E069
:1002200008958FEF9FEF0895FC01918D228D892F06
:1002300090E0805C9F4F821B91098F7399270895EE
:100240008AE392E00E94140121E0892B09F420E066
:10025000822F0895FC01A48DA80FB92FB11DA35AB8
:10026000BF4F2C91848D90E001968F739927848FD6
:10027000A689B7892C93A089B1898C9183708064F9
:100280008C93938D848D981306C00288F389E02D9A
:1002900080818F7D80830895EF92FF920F931F934B
:1002A000CF93DF93EC0181E0888F9B8D8C8D981329
:1002B0001AC0E889F989808185FF15C09FB7F89435
:1002C000EE89FF896083E889F98980818370806481
:1002D00080839FBF81E090E0DF91CF911F910F91CC
:1002E000FF90EF900895F62E0B8D10E00F5F1F4FDB
:1002F0000F731127E02E8C8D8E110CC00FB607FCEA
:10030000FACFE889F989808185FFF5CFCE010E9477
:100310002A01F1CFEB8DEC0FFD2FF11DE35AFF4FBA
:10032000F0829FB7F8940B8FEA89FB898081806205
:10033000CFCFCF93DF93EC01888D8823B9F0AA89C2
:10034000BB89E889F9898C9185FD03C0808186FD90
:100350000DC00FB607FCF7CF8C9185FFF2CF8081DF
:1003600085FFEDCFCE010E942A01E9CFDF91CF9129
:10037000089580E090E0892B29F00E9420018111EE
:100380000E94000080E090E0892B49F080E090E03E
:10039000892B29F00E94000081110E94000080E05A
:1003A00090E0892B49F080E090E0892B29F00E94B1
:1003B000000081110E94000080E090E0892B49F04C
:1003C00080E090E0892B29F00E94000081110C94BC
:1003D00000000895FC0101900020E9F73197AF017A
:1003E000481B590BBC018AE392E00C94B6008F9233
:1003F0009F92AF92BF920F931F93CF93DF93CDB78E
:10040000DEB7A1970FB6F894DEBF0FBECDBF19A21D
:10041000423008F44AE08E010F5D1F4F842E912C6C
:10042000B12CA12CA50194010E94F605E62FB9017B
:10043000CA01EA30F4F4E05DD801EE938D01232B7C
:10044000242B252B79F790E080E0109719F0CD014F
:100450000E94EA01A1960FB6F894DEBF0FBECDBF91
:10046000DF91CF911F910F91BF90AF909F908F9090
:100470000895E95CE1CF1F920F920FB60F921124FD
:100480002F933F938F939F93AF93BF9380913602A7
:1004900090913702A0913802B09139023091350223
:1004A00023E0230F2D3758F50196A11DB11D209390
:1004B00035028093360290933702A0933802B093AE
:1004C00039028091310290913202A0913302B091B1
:1004D00034020196A11DB11D809331029093320226
:1004E000A0933302B0933402BF91AF919F918F914B
:1004F0003F912F910F900FBE0F901F90189526E8F7
:10050000230F0296A11DB11DD2CF1F920F920FB6DD
:100510000F9211240BB60F922F933F934F935F933B
:100520006F937F938F939F93AF93BF93EF93FF93BB
:100530008AE392E00E942A01FF91EF91BF91AF916F
:100540009F918F917F916F915F914F913F912F91EB
:100550000F900BBE0F900FBE0F901F9018951F921B
:100560000F920FB60F9211240BB60F922F938F9309
:100570009F93EF93FF93E0914A02F0914B028081A9
:10058000E0915002F091510282FD1DC09081809156
:1005900053028F5F8F7320915402821741F0E091D4
:1005A0005302F0E0E65CFD4F958F80935302FF917C
:1005B000EF919F918F912F910F900BBE0F900FBED7
:1005C0000F901F9018958081F2CF789484B5826047
:1005D00084BD84B5816084BD85B5826085BD85B5E7
:1005E000816085BD80916E00816080936E00109265
:1005F00081008091810082608093810080918100E0
:100600008160809381008091800081608093800070
:100610008091B10084608093B1008091B0008160CE
:100620008093B000809191008260809391008091CE
:10063000910081608093910080919000816080930F
:1006400090008091A10082608093A1008091A10020
:1006500081608093A1008091A00081608093A000C0
:10066000809121018260809321018091210181602C
:1006700080932101809120018160809320018091ED
:100680007A00846080937A0080917A0082608093FF
:100690007A0080917A00816080937A0080917A005C
:1006A000806880937A001092C100E0914A02F09134
:1006B0004B0282E08083E0914602F0914702108273
:1006C000E0914802F09149028FEC8083109252022F
:1006D000E0914E02F0914F0286E08083E0914C025F
:1006E000F0914D02808180618083E0914C02F09115
:1006F0004D02808188608083E0914C02F0914D0230
:10070000808180688083E0914C02F0914D0280816D
:100710008F7D808380917B00877F80937B0080E446
:1007200080937C0080917A00806480937A0080912D
:100730007A0086FDFCCF6091780070917900072ED9
:10074000000C880B990B611571058105910511F05D
:100750000E94BB0511E083E0282E312C94EF892EF6
:1007600099249394A12CB12C8FB7F894C0903602A1
:10077000D0903702E0903802F09039028FBF80911C
:100780002D0290912E02A0912F02B0913002C81A32
:10079000D90AEA0AFB0A0E946C0528EB3BE040E01C
:1007A00050E00E94C4056053784F8F4F9F4F6C15E7
:1007B0007D058E059F05C0F480912C0281278093D2
:1007C0002C022FB7F8948091360290913702A091B5
:1007D0003802B09139022FBF80932D0290932E02E0
:1007E000A0932F02B09330022FB7F8948091360275
:1007F00090913702A0913802B09139022FBF4091F9
:1008000028025091290260912A0270912B02841BC8
:10081000950BA60BB70B843F9140A105B10508F4D9
:100820004FC0D0E0C0E080912C02882309F458C06A
:10083000CE01B1010E946308892B09F044C00E94D7
:100840006C05A50194010E94C40560577E4F8F4F2F
:100850009F4F0E943C0720E030E040E251E40E94BC
:1008600099066B017C01AC019B010E945E08882304
:1008700009F443C086E192E00E94EA01CB30D10541
:1008800021F082E292E00E94EA012196CC30D1056B
:1008900051F684E292E00E94EA012FB7F894809129
:1008A000360290913702A0913802B09139022FBFE1
:1008B0008093280290932902A0932A02B0932B02DE
:1008C0000E94B90151CF0E946C0520E931E040E05F
:1008D00050E00E94C40568537F4F8F4F9F4FB9CFA0
:1008E0000E946C0524E630E040E050E00E94C40520
:1008F0006E5C7F4F8F4F9F4FACCF26013701E8943E
:1009000077F82FEF3FEF4FE75FE7C301B2010E9497
:100910005E0881110DC02FEF3FEF4FE75FE7C30186
:10092000B2010E94940618161CF48AE192E0A4CF4A
:100930002FEF3FEF4FE75FE4C701B6010E94EC07DE
:1009400018161CF48EE192E097CF2FEF3FEF4FE7A0
:100950005FECC701B6010E94940687FDF3CF20E04B
:1009600030E0A901C701B6010E94940687FF09C0C3
:100970006DE28AE392E00E944C01F7FAF094F7F8F6
:10098000F0942DEC3CEC4CE45DE3C701B6010E9411
:1009900028062B013C010E940B076B017C010E9481
:1009A0003A079B01AC01C301B2010E9427062B014B
:1009B0003C014AE0C701B6010E94F7016EE28AE3FA
:1009C00092E00E944C0120E030E040E251E4C3019B
:1009D000B2010E94F1070E940B0790E080E04AE01C
:1009E0000E94F7014BCFEAE3F2E01382128288EE15
:1009F00093E0A0E0B0E084839583A683B78388E08A
:100A000092E09183808385EC90E09587848784ECE5
:100A100090E09787868780EC90E0918B808B81ECCB
:100A200090E0938B828B82EC90E0958B848B86ECAC
:100A300090E0978B868B118E128E138E148E0895F4
:100A40008F929F92AF92BF92CF92DF92EF92FF92DE
:100A5000CF93DF93EC01688179818A819B81611555
:100A600071058105910521F464E279ED8BE597E04C
:100A70002DE133EF41E050E00E94C40549015A01E5
:100A80009B01AC01A7EAB1E40E94E3056B017C0184
:100A9000ACEEB4EFA50194010E94F105C60ED71E7D
:100AA000E81EF91EF7FE06C081E0C81AD108E10869
:100AB00080E8F80AC882D982EA82FB82C701B601BF
:100AC0009F77DF91CF91FF90EF90DF90CF90BF9015
:100AD000AF909F908F9008958F929F92AF92BF9208
:100AE000CF92DF92EF92FF9260910002709101022B
:100AF00080910202909103026115710581059105B3
:100B000021F464E279ED8BE597E02DE133EF41E0EC
:100B100050E00E94C40549015A019B01AC01A7EABB
:100B2000B1E40E94E3056B017C01ACEEB4EFA501DA
:100B300094010E94F105C60ED71EE81EF91EF7FEAD
:100B400006C081E0C81AD108E10880E8F80AC0921E
:100B50000002D0920102E0920202F0920302C70169
:100B6000B6019F77FF90EF90DF90CF90BF90AF904E
:100B70009F908F900895609300027093010280937C
:100B80000202909303020895052E97FB1EF4009431
:100B90000E94DB0557FD07D00E94F60507FC03D035
:100BA0004EF40C94DB0550954095309521953F4FC0
:100BB0004F4F5F4F089590958095709561957F4F49
:100BC0008F4F9F4F08950E941806A59F900DB49FC8
:100BD000900DA49F800D911D11240895B7FF0C94D2
:100BE000E3050E94E305821B930B0895A1E21A2EF0
:100BF000AA1BBB1BFD010DC0AA1FBB1FEE1FFF1FC1
:100C0000A217B307E407F50720F0A21BB30BE40B10
:100C1000F50B661F771F881F991F1A9469F7609557
:100C20007095809590959B01AC01BD01CF01089511
:100C3000A29FB001B39FC001A39F700D811D11241D
:100C4000911DB29F700D811D1124911D0895505862
:100C5000BB27AA270E943F060C94B2070E94A40754
:100C600038F00E94AB0720F039F49F3F19F426F4C6
:100C70000C94A1070EF4E095E7FB0C949B07E92F79
:100C80000E94C30758F3BA176207730784079507D2
:100C900020F079F4A6F50C94E5070EF4E0950B2E00
:100CA000BA2FA02D0B01B90190010C01CA01A001BE
:100CB0001124FF27591B99F0593F50F4503E68F119
:100CC0001A16F040A22F232F342F4427585FF3CF5A
:100CD000469537952795A795F0405395C9F77EF42B
:100CE0001F16BA0B620B730B840BBAF09150A1F074
:100CF000FF0FBB1F661F771F881FC2F70EC0BA0FFA
:100D0000621F731F841F48F4879577956795B79581
:100D1000F7959E3F08F0B0CF9395880F08F099277C
:100D2000EE0F9795879508950E94770708F481E064
:100D300008950E94AD060C94B2070E94AB0758F0CC
:100D40000E94A40740F029F45F3F29F00C949B0710
:100D500051110C94E6070C94A1070E94C30768F395
:100D60009923B1F3552391F3951B550BBB27AA2764
:100D700062177307840738F09F5F5F4F220F331F9E
:100D8000441FAA1FA9F335D00E2E3AF0E0E832D066
:100D900091505040E695001CCAF72BD0FE2F29D069
:100DA000660F771F881FBB1F261737074807AB073B
:100DB000B0E809F0BB0B802DBF01FF2793585F4FB0
:100DC0003AF09E3F510578F00C949B070C94E6078F
:100DD0005F3FE4F3983ED4F3869577956795B79592
:100DE000F7959F5FC9F7880F911D9695879597F99D
:100DF0000895E1E0660F771F881FBB1F6217730716
:100E00008407BA0720F0621B730B840BBA0BEE1F2A
:100E100088F7E09508950E94CB0788F09F5798F0D7
:100E2000B92F9927B751B0F0E1F0660F771F881FEF
:100E3000991F1AF0BA95C9F714C0B13091F00E9409
:100E4000E507B1E008950C94E507672F782F882710
:100E5000B85F39F0B93FCCF3869577956795B39530
:100E6000D9F73EF490958095709561957F4F8F4F9F
:100E70009F4F0895E89409C097FB3EF490958095A4
:100E8000709561957F4F8F4F9F4F9923A9F0F92F50
:100E900096E9BB279395F695879577956795B795CE
:100EA000F111F8CFFAF4BB0F11F460FF1BC06F5FB4
:100EB0007F4F8F4F9F4F16C0882311F096E911C0C6
:100EC000772321F09EE8872F762F05C0662371F0E7
:100ED00096E8862F70E060E02AF09A95660F771FFB
:100EE000881FDAF7880F9695879597F90895990FD7
:100EF0000008550FAA0BE0E8FEEF16161706E807E4
:100F0000F907C0F012161306E407F50798F0621B04
:100F1000730B840B950B39F40A2661F0232B242BD9
:100F2000252B21F408950A2609F4A140A6958FEFF8
:100F3000811D811D089597F99F6780E870E060E04A
:100F400008959FEF80EC089500240A941616170662
:100F500018060906089500240A94121613061406AA
:100F600005060895092E0394000C11F4882352F00D
:100F7000BB0F40F4BF2B11F460FF04C06F5F7F4FC5
:100F80008F4F9F4F089557FD9058440F551F59F0AC
:100F90005F3F71F04795880F97FB991F61F09F3F66
:100FA00079F087950895121613061406551FF2CF8F
:100FB0004695F1DF08C0161617061806991FF1CFDF
:100FC00086957105610508940895E894BB27662706
:100FD0007727CB0197F908950E94770708F48FEFE0
:100FE00008950E9404080C94B2070E94A40738F0E8
:100FF0000E94AB0720F0952311F00C949B070C94F2
:10100000A10711240C94E6070E94C30770F3959F73
:10101000C1F3950F50E0551F629FF001729FBB27EF
:10102000F00DB11D639FAA27F00DB11DAA1F649F8B
:101030006627B00DA11D661F829F2227B00DA11D3E
:10104000621F739FB00DA11D621F839FA00D611DC4
:10105000221F749F3327A00D611D231F849F600DE5
:10106000211D822F762F6A2F11249F5750409AF00E
:10107000F1F088234AF0EE0FFF1FBB1F661F771F9A
:10108000881F91505040A9F79E3F510580F00C9465
:101090009B070C94E6075F3FE4F3983ED4F38695F4
:1010A00077956795B795F795E7959F5FC1F7FE2B05
:1010B000880F911D9695879597F908950E94770757
:1010C000880B990B089597FB072E16F4009407D010
:1010D00077FD09D00E94770807FC05D03EF4909573
:1010E00081959F4F0895709561957F4F0895AA1B34
:1010F000BB1B51E107C0AA1FBB1FA617B70710F003
:10110000A61BB70B881F991F5A95A9F78095909534
:10111000BC01CD010895EE0FFF1F881F8BBF079004
:0A112000F691E02D1994F894FFCF2A
:10112A0001000000000000004C01B600E300990134
:10113A001401F20006016E616E00696E66006F7638
:08114A00660020000D0A000000
:00000001FF
